{
  "contractName": "Crowdfunding",
  "abi": [
    {
      "anonymous": false,
      "inputs": [
        {
          "indexed": false,
          "internalType": "address",
          "name": "_funder",
          "type": "address"
        },
        {
          "indexed": false,
          "internalType": "uint256",
          "name": "_amount",
          "type": "uint256"
        }
      ],
      "name": "Funded",
      "type": "event"
    },
    {
      "anonymous": false,
      "inputs": [
        {
          "indexed": false,
          "internalType": "address",
          "name": "_funder",
          "type": "address"
        },
        {
          "indexed": false,
          "internalType": "uint256",
          "name": "_amount",
          "type": "uint256"
        }
      ],
      "name": "FunderWithdraw",
      "type": "event"
    },
    {
      "anonymous": false,
      "inputs": [
        {
          "indexed": false,
          "internalType": "uint256",
          "name": "_amount",
          "type": "uint256"
        }
      ],
      "name": "OwnerWithdraw",
      "type": "event"
    },
    {
      "inputs": [
        {
          "internalType": "uint256",
          "name": "",
          "type": "uint256"
        }
      ],
      "name": "campaigns",
      "outputs": [
        {
          "internalType": "address",
          "name": "user",
          "type": "address"
        },
        {
          "internalType": "string",
          "name": "title",
          "type": "string"
        },
        {
          "internalType": "string",
          "name": "description",
          "type": "string"
        },
        {
          "internalType": "uint256",
          "name": "collectedamount",
          "type": "uint256"
        },
        {
          "internalType": "string",
          "name": "image",
          "type": "string"
        }
      ],
      "stateMutability": "view",
      "type": "function",
      "constant": true
    },
    {
      "inputs": [],
      "name": "deadline",
      "outputs": [
        {
          "internalType": "uint256",
          "name": "",
          "type": "uint256"
        }
      ],
      "stateMutability": "view",
      "type": "function",
      "constant": true
    },
    {
      "inputs": [
        {
          "internalType": "address",
          "name": "",
          "type": "address"
        }
      ],
      "name": "funders",
      "outputs": [
        {
          "internalType": "uint256",
          "name": "",
          "type": "uint256"
        }
      ],
      "stateMutability": "view",
      "type": "function",
      "constant": true
    },
    {
      "inputs": [],
      "name": "fundsWithdrawn",
      "outputs": [
        {
          "internalType": "bool",
          "name": "",
          "type": "bool"
        }
      ],
      "stateMutability": "view",
      "type": "function",
      "constant": true
    },
    {
      "inputs": [],
      "name": "num_of_campaigns",
      "outputs": [
        {
          "internalType": "uint256",
          "name": "",
          "type": "uint256"
        }
      ],
      "stateMutability": "view",
      "type": "function",
      "constant": true
    },
    {
      "inputs": [],
      "name": "targetamount",
      "outputs": [
        {
          "internalType": "uint256",
          "name": "",
          "type": "uint256"
        }
      ],
      "stateMutability": "view",
      "type": "function",
      "constant": true
    },
    {
      "inputs": [
        {
          "internalType": "address",
          "name": "_user",
          "type": "address"
        },
        {
          "internalType": "string",
          "name": "_title",
          "type": "string"
        },
        {
          "internalType": "string",
          "name": "_description",
          "type": "string"
        },
        {
          "internalType": "uint256",
          "name": "_targetamount",
          "type": "uint256"
        },
        {
          "internalType": "uint256",
          "name": "_deadline",
          "type": "uint256"
        },
        {
          "internalType": "string",
          "name": "_image",
          "type": "string"
        }
      ],
      "name": "createcampaign",
      "outputs": [
        {
          "internalType": "uint256",
          "name": "",
          "type": "uint256"
        }
      ],
      "stateMutability": "nonpayable",
      "type": "function"
    },
    {
      "inputs": [
        {
          "internalType": "uint256",
          "name": "_id",
          "type": "uint256"
        }
      ],
      "name": "donate",
      "outputs": [],
      "stateMutability": "payable",
      "type": "function",
      "payable": true
    },
    {
      "inputs": [
        {
          "internalType": "uint256",
          "name": "id",
          "type": "uint256"
        }
      ],
      "name": "withdrawOwner",
      "outputs": [],
      "stateMutability": "payable",
      "type": "function",
      "payable": true
    },
    {
      "inputs": [],
      "name": "withdrawFunder",
      "outputs": [],
      "stateMutability": "nonpayable",
      "type": "function"
    },
    {
      "inputs": [],
      "name": "isFundEnabled",
      "outputs": [
        {
          "internalType": "bool",
          "name": "",
          "type": "bool"
        }
      ],
      "stateMutability": "view",
      "type": "function",
      "constant": true
    },
    {
      "inputs": [],
      "name": "isFundSuccess",
      "outputs": [
        {
          "internalType": "bool",
          "name": "",
          "type": "bool"
        }
      ],
      "stateMutability": "view",
      "type": "function",
      "constant": true
    }
  ],
  "bytecode": "0x6080604052600060025534801561001557600080fd5b50610c1c806100256000396000f3fe6080604052600436106100a75760003560e01c80636ef98b21116100645780636ef98b2114610174578063ac307fcf14610189578063e16619aa1461019e578063e16a8b3d146101b3578063eb162b22146101c8578063f14faf6f146101e8576100a7565b8063024abd0f146100ac578063031b3677146100d7578063141961bc146100f757806329dcb0cf146101285780634a39eef71461013d5780635863b06f14610152575b600080fd5b3480156100b857600080fd5b506100c16101fb565b6040516100ce9190610bdd565b60405180910390f35b3480156100e357600080fd5b506100c16100f2366004610942565b610201565b34801561010357600080fd5b50610117610112366004610a0c565b610213565b6040516100ce959493929190610a88565b34801561013457600080fd5b506100c16103ef565b34801561014957600080fd5b506100c16103f5565b34801561015e57600080fd5b506101676103fb565b6040516100ce9190610ae3565b610187610182366004610a0c565b610424565b005b34801561019557600080fd5b5061016761055c565b3480156101aa57600080fd5b50610167610565565b3480156101bf57600080fd5b5061018761058e565b3480156101d457600080fd5b506100c16101e3366004610964565b610696565b6101876101f6366004610a0c565b610749565b60045481565b60006020819052908152604090205481565b600160208181526000928352604092839020805481840180548651600261010097831615979097026000190190911695909504601f81018590048502860185019096528585526001600160a01b03909116949193929091908301828280156102bc5780601f10610291576101008083540402835291602001916102bc565b820191906000526020600020905b81548152906001019060200180831161029f57829003601f168201915b50505060028085018054604080516020601f600019610100600187161502019094169590950492830185900485028101850190915281815295969594509092509083018282801561034e5780601f106103235761010080835404028352916020019161034e565b820191906000526020600020905b81548152906001019060200180831161033157829003601f168201915b50505050600383015460048401805460408051602060026001851615610100026000190190941693909304601f810184900484028201840190925281815295969395939450908301828280156103e55780601f106103ba576101008083540402835291602001916103e5565b820191906000526020600020905b8154815290600101906020018083116103c857829003601f168201915b5050505050905085565b60055481565b60025481565b600060045447101580610410575060035460ff165b1561041d57506001610421565b5060005b90565b600081815260016020526040902080546001600160a01b031633146104645760405162461bcd60e51b815260040161045b90610b3f565b60405180910390fd5b61046c6103fb565b151560011461048d5760405162461bcd60e51b815260040161045b90610aee565b805460405147916000916001600160a01b039091169083906104ae90610421565b60006040518083038185875af1925050503d80600081146104eb576040519150601f19603f3d011682016040523d82523d6000602084013e6104f0565b606091505b50509050806105115760405162461bcd60e51b815260040161045b90610b68565b6003805460ff191660011790556040517fa20809e697380eaea0fd13bf4d14b00e2ef29559ef361501189d3be2e9b0ec859061054e908490610bdd565b60405180910390a150505050565b60035460ff1681565b6000600554421180610579575060035460ff165b1561058657506000610421565b506001610421565b610596610565565b1580156105a857506105a66103fb565b155b6105c45760405162461bcd60e51b815260040161045b90610b18565b3360008181526020819052604080822054905190929083906105e590610421565b60006040518083038185875af1925050503d8060008114610622576040519150601f19603f3d011682016040523d82523d6000602084013e610627565b606091505b50509050806106485760405162461bcd60e51b815260040161045b90610b68565b3360008181526020819052604080822091909155517fcc44c493635c55e35a9d509712089a1495f3aef19aa6a60e1d76af2b251a9c879161068a918590610a6f565b60405180910390a15050565b600254600090815260016020526040812060055442116106c85760405162461bcd60e51b815260040161045b90610b91565b80546001600160a01b0319166001600160a01b03891617815586516106f690600183019060208a019061080f565b50855161070c906002830190602089019061080f565b506004858155600585905560006003830155835161073191830190602086019061080f565b50506002805460018101909155979650505050505050565b600081815260016020818152604080842060058101805480860182559086528386200180546001600160a01b031916331790556006810180549485018155855291842034930183905581549051929391926001600160a01b03919091169084906107b290610421565b60006040518083038185875af1925050503d80600081146107ef576040519150601f19603f3d011682016040523d82523d6000602084013e6107f4565b606091505b50509050801561080957600382018054840190555b50505050565b828054600181600116156101000203166002900490600052602060002090601f016020900481019282601f1061085057805160ff191683800117855561087d565b8280016001018555821561087d579182015b8281111561087d578251825591602001919060010190610862565b5061088992915061088d565b5090565b61042191905b808211156108895760008155600101610893565b80356001600160a01b03811681146108be57600080fd5b92915050565b600082601f8301126108d4578081fd5b813567ffffffffffffffff808211156108eb578283fd5b604051601f8301601f19168101602001828111828210171561090b578485fd5b60405282815292508284830160200186101561092657600080fd5b8260208601602083013760006020848301015250505092915050565b600060208284031215610953578081fd5b61095d83836108a7565b9392505050565b60008060008060008060c0878903121561097c578182fd5b61098688886108a7565b9550602087013567ffffffffffffffff808211156109a2578384fd5b6109ae8a838b016108c4565b965060408901359150808211156109c3578384fd5b6109cf8a838b016108c4565b9550606089013594506080890135935060a08901359150808211156109f2578283fd5b506109ff89828a016108c4565b9150509295509295509295565b600060208284031215610a1d578081fd5b5035919050565b60008151808452815b81811015610a4957602081850181015186830182015201610a2d565b81811115610a5a5782602083870101525b50601f01601f19169290920160200192915050565b6001600160a01b03929092168252602082015260400190565b6001600160a01b038616815260a060208201819052600090610aac90830187610a24565b8281036040840152610abe8187610a24565b8560608501528381036080850152610ad68186610a24565b9998505050505050505050565b901515815260200190565b60208082526010908201526f43616e6e6f742077697468647261772160801b604082015260600190565b6020808252600d908201526c4e6f7420656c696769626c652160981b604082015260600190565b6020808252600f908201526e4e6f7420617574686f72697a65642160881b604082015260600190565b6020808252600f908201526e756e61626c6520746f2073656e642160881b604082015260600190565b6020808252602c908201527f74686520646561646c696e652073686f756c642062652061206461746520696e60408201526b0103a343290333aba3ab932960a51b606082015260800190565b9081526020019056fea2646970667358221220f2d42598d6ceb348926ee8dc63db9fd6175b4ceb1af25ab31260b48633c444a564736f6c63430006010033",
  "source": "// SPDX-License-Identifier: GPL-3.0\r\npragma experimental ABIEncoderV2;\r\npragma solidity ^0.6.1;\r\n\r\ncontract Crowdfunding {\r\n    mapping(address => uint256) public funders;\r\n\r\n    struct Campaign{\r\n        address user;\r\n        string title;\r\n        string description;\r\n        uint256 collectedamount;\r\n        string image;                                                                               \r\n        address [] donators;\r\n        uint256 [] donations;\r\n\r\n    }\r\n    \r\n     mapping(uint256 => Campaign ) public campaigns;\r\n     uint256 public num_of_campaigns = 0;\r\n     bool  public fundsWithdrawn;\r\n     uint256 public targetamount;\r\n     uint256 public deadline;\r\n\r\n    event Funded(address _funder, uint256 _amount);\r\n    event OwnerWithdraw(uint256 _amount);\r\n    event FunderWithdraw(address _funder, uint256 _amount);\r\n\r\n\r\n    function createcampaign(address _user, string memory _title, string memory _description,\r\n     uint256 _targetamount, uint256 _deadline, string memory _image) public returns(uint256){\r\n        Campaign storage campaign = campaigns[num_of_campaigns];\r\n\r\n        require(deadline <block.timestamp, \"the deadline should be a date in the future \");\r\n\r\n        campaign.user = _user;\r\n        campaign.title = _title;\r\n        campaign.description = _description;\r\n        targetamount = _targetamount;\r\n        deadline = _deadline;\r\n        campaign.collectedamount = 0;\r\n        campaign.image =_image;\r\n\r\n        num_of_campaigns ++;\r\n\r\n        return num_of_campaigns -1;\r\n\r\n     }\r\n\r\n     function donate(uint256 _id) public payable{        \r\n        uint256 amount = msg.value;\r\n        Campaign storage campaign = campaigns[_id];\r\n        campaign.donators.push(msg.sender);\r\n        campaign.donations.push(amount);\r\n\r\n        (bool sent, ) = payable(campaign.user).call.value(amount)(\"\");\r\n\r\n        \r\n\r\n        if(sent){\r\n            campaign.collectedamount = campaign.collectedamount + amount;\r\n        }\r\n\r\n\r\n     }\r\n\r\n\r\n    function withdrawOwner(uint256 id) public payable{\r\n        Campaign storage campaign = campaigns[id];\r\n        require(msg.sender == campaign.user, \"Not authorized!\");\r\n        require(isFundSuccess() == true, \"Cannot withdraw!\");\r\n        uint256 amountToSend = address(this).balance;\r\n        (bool success,) = payable(campaign.user).call.value(amountToSend)(\"\");\r\n        require(success, \"unable to send!\");\r\n        fundsWithdrawn = true;\r\n        emit OwnerWithdraw(amountToSend);\r\n    }\r\n\r\n    function withdrawFunder() public {\r\n        \r\n        require(isFundEnabled() == false && isFundSuccess() == false, \"Not eligible!\");\r\n\r\n        uint256 amountToSend = funders[msg.sender];\r\n        (bool success,) = msg.sender.call.value(amountToSend)(\"\");\r\n        require(success, \"unable to send!\");\r\n        funders[msg.sender] = 0;\r\n        emit FunderWithdraw(msg.sender, amountToSend);\r\n    }\r\n\r\n    // Helper functions, although public\r\n\r\n    function isFundEnabled() public view returns(bool) {\r\n        if (block.timestamp > deadline || fundsWithdrawn) {\r\n            return false;\r\n        } else {\r\n            return true;\r\n        }\r\n    }\r\n\r\n    function isFundSuccess() public view returns(bool) {\r\n        if(address(this).balance >= targetamount || fundsWithdrawn) {\r\n            return true;\r\n        } else {\r\n            return false;\r\n        }\r\n    }\r\n\r\n\r\n\r\n}\r\n\r\n",
  "sourcePath": "C:\\Users\\user\\Desktop\\deployable\\contracts\\Crowdfunding.sol",
  "compiler": {
    "name": "solc",
    "version": "0.6.1+commit.e6f7d5a4.Emscripten.clang"
  },
  "schemaVersion": "3.4.16",
  "updatedAt": "2024-02-25T17:03:33.213Z",
  "networkType": "ethereum",
  "devdoc": {
    "methods": {}
  },
  "userdoc": {
    "methods": {}
  }
}